S00E00007573703530302E7372656329
S1130000602400202D0100002901000029010000C6
S113001000000000000000000000000000000000DC
S11300200000000000000000000000001523000094
S113003000000000000000003123000075230000D0
S11300402901000029010000290100001518000001
S113005029010000290100002901000051160000B7
S113006029010000290100002901000029010000E4
S113007029010000290100002901000029010000D4
S113008029010000290100002901000029010000C4
S113009029010000290100002901000029010000B4
S11300A029010000290100002901000029010000A4
S11300B029010000290100002901000010B5064CA7
S11300C02378002B07D1054B002B02D0044800E015
S11300D000BF0123237010BD0000002000000000B9
S11300E09C280000084B10B5002B03D00749084892
S11300F000E000BF07480368002B00D110BD064B89
S1130100002BFBD09847F9E7000000000400002012
S11301109C2800009C2800000000000010B5014B42
S1130120984710BDFD0A0000FEE7000010B5104A14
S1130130104B9A4209D00F4B0D4A03E01168196025
S1130140043304320C498B42F8D30C4B02E00022F6
S11301501A6004330A4A9342F9D30A4AFF210A4B2C
S11301608B439360094B9847094B9847FEE7C04679
S11301709C28000000000020000000200000002057
S11301806004002000ED00E00000000029260000CB
S1130190B522000010B5164AD1698023DB020B4357
S11301A0D361402184235B00124AD1501249134881
S11301B0134B984720218423C022D205D150822298
S11301C0D20524330F49D150C0210906D150C5218D
S11301D0535C012083430343DBB253541339535C10
S11301E00F20034010200343DBB2535410BDC0461C
S11301F000080040001C0040004800427C0200202F
S11302002110000020000040F8B5DE4657464E4657
S11302104546E0B57E4AD16980239B020B43D361F6
S113022040257C4B822252009D507B497B487C4B6D
S11302309847C024E405042363608223DB05794ADC
S11302409A62C02000069862422294469E5C012174
S11302508E4301221643F6B26746DE5531269E5D73
S1130260333FB946BE431643F6B22237DE558026E5
S1130270B600B4467D3EFF3E6746A75124366A4F1A
S11302809F5198512136B4469E5D8E431643F6B273
S11302906746DE55B426B2469E5DBA3FB8463E4038
S11302A01027BC4667463E43F6B25746DE55102635
S11302B066605E4E9E6298624426B2469E5D8E43A0
S11302C01643F6B25746DE553226B2469E5D4F4679
S11302D0BE431643F6B25746DE5520266660544E9A
S11302E09E6298624526B3469E5D8E431643F6B2DF
S11302F05F46DE5556469E5D47463E4067463E4352
S1130300F6B25746DE5565604A4D9D6298624626B0
S11303109D5D8D431543EDB29D55133E9D5D4F4646
S1130320BD431543EDB29D5580256560424D9D62E8
S113033098624725AA465D5D8D431543EDB2574645
S1130340DD559D5D47463D4067463D43EDB29D55B5
S113035082256D006151F536384D9D519851A02587
S11303606D00AA465D5D8D431543EDB25746DD55DC
S113037098256D00AA465D5D4F46BD431543EDB219
S11303805746DD5502252C3FE5512D4D9D51985181
S11303904225FF35AB465D5D8D431543EDB25F46A7
S11303A0DD5555465D5D47463D4067463D43EDB2EC
S11303B05746DD5504252C3FE5511A4D9D51985162
S11303C01A369D5D8D431543EDB29D553226FF3699
S11303D09D5D4F46BD431543EDB29D5508256560AF
S11303E0184C9C6298624324185D88430243D2B23D
S11303F01A5531229A5C41460A4061460A43D2B2F8
S113040031215A543CBC90469946A246AB46F8BDAD
S113041000080040001C0040004400425C02002030
S113042021100000040000400002004010000040C1
S113043020000040400000408000004001000040D7
S11304400200004008000040F0B5DE4657464E4624
S11304504546E0B583B040218823AA4AD150AA4A30
S113046053698021C9000B435361C024E4058223EE
S11304705B009A46043B5246A3508223DB05942733
S11304807F00A24ADA51A24ADA51A42252009446C9
S11304909A5C0420824361465A545D5C4839FF39B2
S11304A08D4301221543EDB266469D559A256D0094
S11304B0A8465D5D2E000F25AE43B446464665460C
S11304C09D558025AD04AC46554666466651914D12
S11304D0A946DD51904DDD515A25FF35A8465D5D95
S11304E02E00864345465E555D5D2E008E431643C1
S11304F0351C6E46F571F579AC46454666465E5543
S11305001D3DAB465D5DAC460F25A84666462E40B4
S11305105D465E558025ED04AC46554666466651FB
S11305204D46DD517D4DDD51AD256D00AB465D5D24
S11305302E0086435D465E555D5D2E008E43164358
S1130540351C6E46F571F579AC465D4666465E55DA
S11305503E25FF35AB465D5D2E000F25AE435D465F
S11305605E5555468026360166516D4DDD51684D08
S1130570DD514C25FF355F5D87435F555F5D8F43DC
S11305801743FFB25F553625FF35AC465F5D4546E0
S11305902F4065465F55B13DAB468027FF03675149
S11305A02435AC464E465E515E4F5F512E355F5D3D
S11305B087435F555F5D8F431743FFB25F551B3D14
S11305C0AA465F5DAC3DAF4355465F5580277F0427
S11305D05D46675165465E51534F5F5130355F5DEF
S11305E087435F555F5D8F431743FFB25F551C3DE3
S11305F0A9465F5DAD3DAF434D465F558025ED0097
S113060065604A4F9F62424D9D624A255F5D874304
S11306105F555F5D8F431743FFB25F553527DD5D3F
S11306202E000F25AE43DE5580252D0165603C4D1F
S11306309D62374D9D624B25AA465D5D2E00864323
S113064055465E555D5D2E008E431643351C6E4641
S1130650F571F579A94655464E465E55DD5D2E0089
S113066045462E40DE5580277F016760304F9F62EC
S1130670274D9D624C255F5D87435F555F5D8F43CA
S11306801743FFB25F55163DA9465F5D273DAF4353
S11306904D465F558027BF016760264F9F621C4D02
S11306A09D624D255F5D87435F555F5D8F431743B3
S11306B0FFB25F554D465F5D45462F404D465F5541
S11306C08027FF015D4667511B4C65465C516446BB
S11306D00F4D1D5126341E5D86431E55185D8843FB
S11306E00243D2B21A55B6315A5C0F2082435A548F
S11306F0124B984703B03CBC90469946A246AB4681
S1130700F0BDC046001C004000080040000102404B
S1130710000002C000000240000202C0000402C047
S113072000080240400002C0000102C00004024070
S1130730001002400020024000400240011100006D
S113074070B58223DB054820195C042291431954B7
S1130750195C0125A94301242143C9B21954143851
S1130760195C0F26B14302263143C9B219544921F9
S11307705E5C96435E545A5CAA432243D2B25A54F6
S11307801A5C3A390A4020210A43D2B21A5470BD85
S1130790064B4021CC2299500331043A9950044A23
S11307A0D36941390B43D3617047C046001C0040F4
S11307B00008004010B5044B984704490448054B11
S11307C09847054B984710BD91070000000400426C
S11307D0040200209D11000041070000F0B5C02470
S11307E0E40580256D0265608223DB055020195CD9
S11307F004221143C9B21954A561195C0126B143FD
S113080001252943C9B219541838195C0F27B94373
S113081002273943C9B21954802189028C46616088
S113082051215F5C3A43D2B25A546246A2615A5C87
S1130830B2432A43D2B25A541A5C42390A402021A4
S11308400A43D2B21A54F0BD064B4021D02299502B
S11308500331083A9950044AD3693F390B43D361B1
S11308607047C046001C00400008004010B5044B0F
S1130870984704490448054B9847054B984710BDD1
S113088049080000000800429C0200209D1100005D
S1130890DD070000F0B5C024E4058023DB036360BA
S11308A08223DB05224A9A62224A9A6256215A5CC2
S11308B0042082435A545A5C0338844682430127F5
S11308C03A43D2B25A543B255A5D47398A430221EE
S11308D00A43D2B25A55802212046261A260802176
S11308E0C9059962144A9A6256301A5C6646B24344
S11308F03A43D2B21A54585D0E3630402022104387
S1130900C0B25855802292036261A26099620B4A78
S11309109A625522995C604681433943C9B299541D
S11309203A215A5C324030200243D2B25A54F0BDCC
S113093000000240400002C0800000C0200000C04F
S1130940064B4021D82299500331103A9950044A59
S1130950D36933390B43D3617047C046001C004050
S11309600008004010B5044B984704490448054B5F
S11309709847054B984710BD4109000000100042FC
S113098024020020751200009508000070B582232F
S1130990DB05CC20195C042291431954195C012510
S11309A0A94301242143C9B219541638195C0F26EE
S11309B0B14302263143C9B21954CD215E5C96433A
S11309C05E545A5CAA432243D2B25A541A5CBE39CA
S11309D00A4020210A43D2B21A5470BD064B40216A
S11309E0DC2299500331143A9950044AD3692339CB
S11309F00B43D3617047C046001C00400008004010
S1130A0010B5044B984704490448054B9847054BD7
S1130A10984710BDDD09000000140042BC0200200C
S1130A209D1100008D090000F0B5CE46474680B503
S1130A30C024E40584239C4680214902E15082239A
S1130A40DB05D0201A5C04273A43D2B21A54982208
S1130A509146A150195C0126B14301252943C9B22D
S1130A6019541838195C893A914302229046424637
S1130A701143C9B2195480229202904662464146FB
S1130A80A150D1215A5C1743FFB25F5442464F46EE
S1130A90E2515A5CB2432A43D2B25A541A5CC23964
S1130AA00A4020210A43D2B21A540CBC90469946FB
S1130AB0F0BD0000054B4021E42299504320043A44
S1130AC09850034AD3690B43D3617047001C00401C
S1130AD00008004010B5044B984704490448054BEE
S1130AE09847054B984710BDB50A0000001800420E
S1130AF03C0200209D110000290A0000F8B5DE46E2
S1130B0057464E464546E0B5FE4B9847C022D205AF
S1130B108023DB0253608223DB05FB499962FB4996
S1130B2099625220195C0424A246A14319541D5C05
S1130B3001218D431D545325585D88435855013573
S1130B40585D88435855802040045060EE489862B0
S1130B50EF4898628020400450600435585D0426B4
S1130B603043C0B25855802040049061585D88439A
S1130B7058558020800481465060E3489862E548D7
S1130B809862484650600135585D3043C0B25855AC
S1130B9048469061585D88435855943691512F3595
S1130BA05151A820DC4F1F50C02424061C50C027DC
S1130BB0B846DF5D8F43BC4647466446DC55022495
S1130BC094515451D54C1C50C02424061C50C124AB
S1130BD0A0461C5D27008F4344461F55544694513C
S1130BE05451CF4C1C50C02424061C50C224A4468B
S1130BF01C5D8C436746DC55082494515451C94C00
S1130C001C50C02424061C50C324A4461C5D8C43E1
S1130C106746DC558024240294515451C24C1C5024
S1130C20C02424061C50CF24A4461C5D8C43674674
S1130C30DC5594248027FF02175157518024E40582
S1130C401C50BA4F1F50D227B846DF5D8F43BC46B5
S1130C5047466446DC55802424039451545180242F
S1130C60E4051C50B24C1C50D324A0461C5D270044
S1130C708F4344461F5580246403A0469451545125
S1130C808024E4051C50AB4C1C50D424A2461C5DAB
S1130C9027008F4354461F558024A403A44694512F
S1130CA054518024E4051C50A34C1C50D524A34665
S1130CB01C5D27008F435C461F55802424049451F7
S1130CC054518024E4051C509C4C1C50D724A3464A
S1130CD01C5D27008F435C461F554C46945154516C
S1130CE08024E4051C50964C1C50D924A2461C5D5B
S1130CF027008F4354461F55802424069451545191
S1130D008024E4051C508F4D1D50DF25585D884319
S1130D10585580364020905129355051E8308A4C3E
S1130D201C50C02424061C50A3246400A2461C5D4D
S1130D3027008F4354461F55C63C94515451834C4D
S1130D401C50C02424061C504824FF34A2461C5DB9
S1130D5027008F4354461F55B9349451EC3CA146A7
S1130D608024E400A2464C46574617515751784C0C
S1130D701C50C02424061C50A5246400A3461C5DFA
S1130D8027008F435C461F558024640194515451BD
S1130D90704C1C50C02424061C50A6246400A34696
S1130DA01C5D27008F435C461F558024A401945189
S1130DB05451694C1C50C02424061C504E24FF344A
S1130DC0A3461C5D27008F435C461F558024E40125
S1130DD094515451614C1C50C02424061C50A72427
S1130DE06400A3461C5D27008F435C461F55802486
S1130DF02402945154514C4C1C50C02424061C50C1
S1130E005024FF341F5D8F431F5580277F024C46BB
S1130E10175157518024E4051C50514F1F50A824EA
S1130E2064001F5D8F431F558027BF024C46175136
S1130E3057518024E4051C504A4F1F505224FF345C
S1130E401F5D8F431F554C468027FF021751575192
S1130E508024E4051C50354C1C50A92464001F5DFB
S1130E608F431F5580242403945154518024E40556
S1130E701C502F4C1C505424FF341F5D8F431F55AE
S1130E804F3CA146474617511F4C1C50364F1F502C
S1130E904C46474617515034A2461F5D513CFF3C17
S1130EA02743FFB254461F554446945154461F5D90
S1130EB08F431F554C4667461751134C1C502B4FFC
S1130EC01F504C46674617515624FF34A0461F5DF9
S1130ED0523CFF3C2743FFB244461F55644694519D
S1130EE044461F5D8F431F5580246404945154511C
S1130EF08024E4051C501E4F1F50AC2464001F5D69
S1130F0038E0C046A915000000000240040002C0F9
S1130F10000102C0000202C00100004002000040C3
S1130F20040000400800004000800040040000C0AD
S1130F30080000C0100000C0200000C0800000C0F5
S1130F40000200C0008000C040000040800000405B
S1130F500004004000100040002000400040004019
S1130F60010000C0020000C0100002C0200002C046
S1130F70000100C08F431F5580273F0597515751EB
S1130F808024E4051C50154F1F505C24FF341F5D62
S1130F908F431F5580277F05975157518022D205D3
S1130FA01A500F4A1A5034301A5C8A431A540D4BA3
S1130FB098470D4B98470D4B98470D4B98470D4B51
S1130FC098470D4B98470D4B98470D4B98473CBCA1
S1130FD090469946A246AB46F8BDC046000800C0FC
S1130FE0001000C00902000095010000490400003F
S1130FF0B50700006D08000065090000010A000043
S1131000D50A000010B580684369002B00D09847CA
S113101010BD10B580688369002B00D0984710BDBF
S113102070B504000D00002810D000290CD0012058
S11310303D221249124B984729002000114B984732
S1131040051E05D0280070BD0020F1E70020EFE761
S113105020000D4B9847010000200C4B98472000BE
S11310601C3000210A4B9847E3699C60E369094AF4
S11310701A60E369084A5A60E4E7C0468026000023
S11310808D13000041150000791500002D16000095
S11310903D160000051000001310000010B5044BAD
S11310A01C68044B984701002000034B984710BD6F
S11310B01C00002081150000A115000070B50B254F
S11310C0002407E00D4AB358002B00D0984770BDA8
S11310D0013AD5B2AC42FAD82B195B10DAB20A2A1B
S11310E0F5D8FF210B40DE00044989194968814283
S11310F0E8D0EDD20132D4B2ECE7C04620000020A3
S113110010B5002309E0084AD900501801246442AC
S113111044600020885001339BB20A2BF3D9034862
S1131120034B984710BDC04620000020BD100000AE
S11311306517000010B584B01438848B01AB1C8093
S113114014000292064A5A8003911900054B9847ED
S1131150002802D1200004B010BD0400FAE7C04604
S11311600080FFFF291D000010B584B01438848B63
S113117001AB1C8014000292064A5A8003911900A4
S1131180054B9847002802D1200004B010BD04008C
S1131190FAE7C0460180FFFF291D000070B5040076
S11311A00D00431E9841C0B25E220749074B984781
S11311B029002000064B9847002803D1054BA36162
S11311C0054B636170BDC0469C2600008D13000072
S11311D0791C0000691100003511000010B5014BA5
S11311E0984710BDA91C00008905890D8023DB00E8
S11311F01A400A43828310007047143008600020AC
S11312007047000070B504000D00160000280ED0D1
S113121000290AD0012034220649074B9847236845
S1131220320029002000984770BD0020F3E7002019
S1131230F1E7C046B82600008D13000070B5040025
S11312400D00160000280ED000290AD001203D22EE
S11312500649074B984763683200290020009847E5
S113126070BD0020F3E70020F1E7C046B826000077
S11312708D13000070B504000D00002817D000295C
S113128013D0012040220B490B4B98476560201D69
S113129029000A4B9847002806DB094BA382094B17
S11312A02361094BE360002070BD0020EAE70020C1
S11312B0E8E7C046CC2600008D130000A51F0000FF
S11312C00080FFFF511300001513000030B587B0F4
S11312D004000D00002815D0002911D00120B322EC
S11312E009490A4B98472B6803936B680493AB68CE
S11312F001930593201D03A9054B984707B030BD02
S11313000020ECE70020EAE7CC2600008D13000063
S1131310A121000070B584B004000E001500431E26
S11313209841C0B2A3220749074B984720000C38C4
S1131330002302930196039501A9044B984704B036
S113134070BDC046CC2600008D130000CD120000F5
S113135070B584B004000E001500431E9841C0B25D
S113136087220749074B984720000C380296002330
S11313700193039501A9044B984704B070BDC0467E
S1131380CC2600008D130000CD120000002800D1EF
S113139000BE7047024B9C466044800AC0B270474E
S11313A000BCFFBD30B5524B984200D189E0514B8F
S11313B0984200D190E00022038CDB0714D4038C04
S11313C09B07FCD103789B0709D503780224A34328
S11313D00370038C9B07FCD1038C9B07FCD4012373
S11313E00370038C9B07FCD1038CDB07FCD4828540
S11313F0CA00521A9400404B1B199A784270DA784A
S113140082701A79C270DB880381038C5B05FCD17E
S1131410CB005B1A9A00384B9B181B894381038CC1
S11314205B05FCD1CB005B1A9A00334B9B189B7A6B
S11314300373038C5B05FCD1CB005B1A9A002E4B23
S11314409B18DB7A4373038C5B05FCD1CB005B1ADE
S11314509A00294B9B189B89C381038C5B06FCD49F
S1131460CB005B1A9A00244B9B18DB890382038C04
S11314701B06FCD4CB005B1A9A001F4B9B181B8ADB
S11314804382038CDB05FCD4CB005B1A9A001A4B15
S11314909B185B8A8382038C9B05FCD4164CCB007F
S11314A05D1AAA00A218157D057792698262591AFD
S11314B08B00E41863780370038C9B07FCD1002035
S11314C030BD0E4B1B681A02E024E4001440DB0814
S11314D007221A4022436FE7084B1B689A0912023D
S11314E0E024E40022405B0A072423401A4363E714
S11314F00044004200480042E826000020608000CA
S113150010B50B4B984701000020012809D8C300EF
S11315101B1A9A00074BD35C994208D00130C0B221
S1131520F3E78D2204490020044B9847002010BDA6
S113153095130000E8260000202700008D1300000A
S113154070B505000C00431E9841C0B2FF22064945
S1131550064B98472C612000054B9847010020005A
S1131560044B984770BDC046202700008D1300002F
S113157001150000A5130000006924307047000025
S113158010B50300C8204000584302300321034B28
S1131590984783001B18580010BDC046F71500007B
S11315A00139FDD87047000010B5084B5A685A60DD
S11315B0074B9847074B9847074B9847074B984763
S11315C0FF20074B9847074B984710BD0040004148
S11315D0511800007518000045180000B1180000EB
S11315E021180000E91500009022D2051378022189
S11315F08B431370704710B582B0EFF310830193DF
S113160072B69023DB051A780124A2431A709860FD
S1131610D9609023DB051B79DB07FAD49023DB0523
S11316201869019B83F3108802B010BD03010248BE
S1131630C018416000207047E00200204B00591898
S11316408A00024B9B18036000207047780000203A
S113165070B5154A118C0F230B403F25545DE4B23D
S11316605900C91888001149081853554E21525C75
S1131670D2B2D10705D492070AD43F230A4AD454DC
S113168070BD3E3D4E2208498D5443689847F4E7A7
S113169002254E2204498D545A00D3189A00034B54
S11316A0D3589847E9E7C04600600041780000201D
S11316B0F0B583B0254B5A690192019A5A61244BC3
S11316C01868431E9841C0B2E8222249224B984729
S11316D001256D422FE0DB00204AD3185D686B1CA6
S11316E003D01B4B1B68280098470122A240019B92
S11316F09343019301981A4B9847013844B2631CF1
S113170014D00B26002001E00139CEB2B042E6D855
S113171033185B10D9B2FF221340DF000F4ABA5CC2
S1131720A242D8D0F0DA0131C8B2EFE7074B5A69C8
S11317300192019A5A61019B002B05D00198084B34
S11317409847013844B2DAE703B0F0BD00280040FE
S113175008010020902700008D13000038270000A6
S1131760D5250000284B5B68DB071BD4264B5B6840
S11317709B07FBD1244B1B789B070CD5224A13787B
S113178002218B431370204B5B689B07FBD11E4BDC
S11317905B689B07FBD401221B4B1A701A4B5B68D6
S11317A09B07FBD1184B5B68DB07FBD4164A137805
S11317B010218B431370144B5B689B07FBD1124BB6
S11317C000225A709A609A618021090219635A634F
S11317D00321D9611A621A7802210A43D2B21A701B
S11317E0094B5B689B07FBD1084B082280215A50A8
S11317F0BFF34F8FBFF36F8F0131FF315A501A601F
S1131800034B1860002070470028004000E100E00E
S11318100801002010B5014B984710BDB116000017
S1131820C30707D5044A054B1A62044B5A68044B94
S11318301A42FAD17047C04606230100001C00403A
S1131840FD0700000122014B1A7170470008004097
S1131850074A8623938200239375D375D3691B0AA1
S11318601B02F82149010B40D36101231361704726
S1131870001400400D4B42221A75373A5A750B4B2F
S11318809B695B07FBD4094B9B695B07FBD407226D
S1131890064B9A75054BDB68DB06FBD5034A137DC3
S11318A0802149420B43DBB213757047001000409E
S11318B07047000030B589B00B4C6B46220032CA29
S11318C032C332CA32C312CA12C30023072B08D848
S11318D09A0069465258824201D00133F6E7D8B2E1
S11318E000E0002009B030BDA827000010B50D4B62
S11318F098470023032B0DD85A00D218D1000A4A66
S113190052183421525C904202D00133DBB2F1E729
S113191058B206E0054A06490020064B98470120C4
S1131920404210BDB5180000A82700009B0300002A
S1131930602800008D13000070B505000C0008003D
S11319402E4B9847C0B2E369DB071DD443001B1834
S1131950DA002B4B9B189A6B1C231A40E3699B07F4
S1131960FCD123689B0709D5236802218B4323609C
S1131970E3699B07FCD1E3699B07FCD40123134370
S11319802360E3699B07FCD1E369DB07FCD44300D4
S11319901B18DA001A4B9B189B6B2360E3699B07A7
S11319A0FCD143001B18DA00154B9B18DB6B6360FA
S11319B0E3695B07FCD142001218D100104B5B189D
S11319C01A6CE2609A6B120E03231A40AA81023B3E
S11319D093429B415B42626A0A490A409B03134358
S11319E06362E3695B07FCD443001818C200044B2C
S11319F09B1846331B88EB81002070BDED18000056
S1131A00A8270000FFBFFFFF70B505000469236825
S1131A10DB0E01261E40431E9841C0B28E4A8F49F8
S1131A208F4B98476B68012B4DD063688D4A1340E8
S1131A306360E3695B07FCD12B885A054ED56A883D
S1131A40D20704D56A888021C9000A436A805B00F2
S1131A50854A1A40E3695B07FCD4636A8021C901A3
S1131A600B4013438022120213436362E3695B0752
S1131A70FCD42E697D4A337EDBB21800511E002A45
S1131A8002D00A009B07F6D02368DB0E01221A401D
S1131A90E3695B07FCD4638B9BB2C10700D48FE07E
S1131AA09A072FD5012222766A88802149010A43A8
S1131AB06A806A886E490A406A80DB0700D4C6E0FF
S1131AC005204042A2E0002EAFD062688023DB02F2
S1131AD013436360E3695B07FCD1ADE75B00FF225E
S1131AE013406A8801210A401A43E3695B07FCD466
S1131AF0636A8021C9010B4013436362E3695B0796
S1131B00FCD4B6E75B071BD46B885B0534D52A8805
S1131B101212520006231A40E3695B07FCD4636A7D
S1131B208021C9010B401343F12213436362E3692B
S1131B305B07FCD46B884F4A13406B80002065E040
S1131B406B68002B04DD6B888022520113436B8089
S1131B506B881BB2002B06DB6B88454A13406B80F5
S1131B600220404252E06268C0239B021343636038
S1131B70E3695B07FCD4EFE76868002811D16B8840
S1131B801BB2002B04DB6B88394A13406B803DE0A9
S1131B906268C0239B0213436360E3695B07FCD460
S1131BA0F1E7AB681A782823E254E3695B07FCD4B5
S1131BB0AB680133AB606B68013B6B60002025E0D0
S1131BC0810747D5696800293CD05B073AD40139BD
S1131BD06960002901D1002A1BD0012917D06B6844
S1131BE0002B07D16B881BB2002B1BDB6B88204AB0
S1131BF013406B80AA68531CAB60E3695B07FCD499
S1131C002823E35C137002232376002070BD002A8E
S1131C10E5D062688023DB0213436360E3695B07FA
S1131C20FCD1DCE76368124A13406360E3695B0735
S1131C30FCD16268C0239B0213436360E3695B07C2
S1131C40FCD4D3E70223237602204042DEE70420BB
S1131C504042DBE70020D9E79B0500006028000034
S1131C608D130000FFFFFBFFFE070000FFFF0000D5
S1131C70FFFEFFFFFFFBFFFF70B504000D00431ED6
S1131C809841C0B2044A0549054B9847256129008B
S1131C902000044B984770BD0E050000602800002A
S1131CA08D1300003919000070B50400194D431E4E
S1131CB09841C0B2184A2900184EB0472469200040
S1131CC0431E9841C0B2164A2900B0472368022235
S1131CD013432360E3699B07FCD104201149E369A2
S1131CE05B07FCD4628B120903231340012B0BD036
S1131CF001390029F3DC0138002807D0102363835D
S1131D00E3695B07FCD4E9E7002070BD062040428C
S1131D10FBE7C046602800002B0500008D1300007F
S1131D20FB050000FFFF0000F8B505000E00046984
S1131D30431E9841C0B2934A9349944FB8472869C7
S1131D40431E9841C0B2924A8F49B8473000431E9F
S1131D509841C0B2B922D2008B49B8476B88DB05E1
S1131D6000D50BE1728880235B009C461A43728085
S1131D702A00310089C989C26268634613436360DB
S1131D80E3695B07FCD12800824B9847002800D107
S1131D909DE06B88804A13406B80F8BD052040426B
S1131DA0A6E073881BB2002B04DB6B887A4A1340CD
S1131DB06B80F2E76268C0239B0213436360E369AC
S1131DC05B07FCD4F1E753071BD46B885B0534D560
S1131DD02A881212520006231A40E3695B07FCD4D6
S1131DE0636A8021C9010B401343F12213436362E8
S1131DF0E3695B07FCD46B88684A13406B8000205E
S1131E0065E06B68002B04DD6B888022520113436C
S1131E106B806B881BB2002B06DB6B885E4A134019
S1131E206B800220404252E06268C0239B0213434D
S1131E306360E3695B07FCD4EFE76868002811D1AD
S1131E406B881BB2002B04DB6B88534A13406B80F6
S1131E503DE06268C0239B0213436360E3695B0750
S1131E60FCD4F1E7AB681A782823E254E3695B07F2
S1131E70FCD4AB680133AB606B68013B6B60002042
S1131E8025E0BB0778D56B68002B6DD052076BD467
S1131E90013B6B60002B01D100294CD0012B48D0B1
S1131EA06B68002B07D16B881BB2002B4CDB6B8853
S1131EB0394A13406B80AA68531CAB60E3695B0723
S1131EC0FCD42823E35C13700223237600206B8860
S1131ED0DB0500D461E72869314A037EDBB21F00C9
S1131EE0511E002A00D159E70A009B07F5D00020B3
S1131EF0002800D055E72368DB0E01211940E3696F
S1131F005B07FCD4628B92B2FB07BAD5930700D46B
S1131F1059E7012323766B88802149010B436B80A9
S1131F206B881D490B406B80D30722D505204042A6
S1131F30CDE70029B4D062688023DB0213436360D9
S1131F40E3695B07FCD1ABE76368134A1340636042
S1131F50E3695B07FCD16268C0239B02134363609F
S1131F60E3695B07FCD4A2E7022323760220404204
S1131F70ADE704204042AAE70020A8E7062040423B
S1131F800BE7C046C6050000602800008D13000062
S1131F90C7050000091A0000FFFEFFFFFFFBFFFF5B
S1131FA0FFFF000070B506000C000800714B984755
S1131FB00023002B00D184E00025002E00D18DE009
S1131FC0002C00D188E001206B4A6C496C4B984787
S1131FD0002D00D1CBE0E369DB0721D42A786B78AC
S1131FE01B021343AA7812041343EA7812061A4315
S1131FF01C231A40E3699B07FCD123689B0709D57E
S1132000236802218B432360E3699B07FCD1E369C6
S11320109B07FCD4012313432360E3699B07FCD192
S1132020E369DB07FCD434602B786A7812021A4324
S1132030AB781B041A43EB781B0613431C22134092
S1132040082B4DD0002C00D18DE0002D00D188E06C
S113205001204C4A49494A4B98472B786A78120226
S11320601A43AB781B041A43EB781B061343464A06
S113207013402360E3699B07FCD12B796A79120230
S11320801A43AB791B041A43EB791B0613433F4AEB
S113209013408022920213436360E3695B07FCD11F
S11320A02B7B23736A7B3023E2542B795B075CD14F
S11320B001233371AA7BEB7B1B021343F3800020C3
S11320C070BD032802D00133DBB272E71D01EA18A8
S11320D02F4D2435AD1870E7002075E7002073E715
S11320E0002C3CD0002D38D001202A4A2349244B0F
S11320F098472B786A7812021A43AB781B041A4368
S1132100EB781B061343204A13402360E3699B07C3
S1132110FCD12B796A7912021A43AB791B041A4356
S1132120EB791B0613431C4A13401C4A1343636098
S1132130E3695B07FCD12B7A6A7A12021A43AB7A01
S11321401B041A43EB7A1B06134363626A7B302336
S1132150E254E369002BFCD1A7E70020C5E7002087
S1132160C3E7002075E7002073E70223A1E70D20F1
S11321704042A5E7B51800002C09000060280000C3
S11321808D130000F6080000FCFEFFFFBF1DFDFFDD
S1132190282800000A090000BFDDFDFF40020200FC
S11321A0F0B5CE46474680B589B081460D00046837
S11321B00B6803934B6804930023059306930679F5
S11321C0002814D0002C10D00120374A3749384B4E
S11321D09847E3695B0764D1E3699B07FCD12368F3
S11321E09B0720D41420404256E00020EDE7002055
S11321F0EBE700222DE04878000247460743B84643
S113220002310391013205924246A2625BB2002B75
S113221035DB002000283ADB0598AB68984202D3EE
S1132220069A934233D9237EDBB25A07E1D5A16AD9
S1132230049A002A08D0501C04901170012E03D96E
S1132240901C0490090A5170069A01920132069278
S11322500122002ADAD10699059A9142D6D3494639
S1132260C888D907D2D50399002906D0481C039001
S113227008788046012EBED8C4E78046C2E7012311
S11322805B4263838133237613204042C2E7237E7B
S11322909B07FCD00323237609B00CBC90469946D7
S11322A0F0BD04204042F7E78C0A000060280000DB
S11322B08D13000010B5044B9847044B9847FA203F
S11322C08000034B9847F8E71D0100005D250000DE
S11322D09D10000043684B609A688A609A68516058
S11322E099600861036801330360704703694268B9
S11322F0816891608268416851605A68904206D052
S1132300002202611A68013A1A60186870478268EC
S11323105A60F5E77047EFF3108072B6704780F3A8
S1132320108870470000000000000000000000005A
S1132330EFF309800E4B1A6820381060F0C0444651
S11323404D4656465F46F0C008B572B600F0C6F872
S113235062B60CBC116808681030F0C8A046A946E3
S1132360B246BB4680F309882038F0C81847C046F7
S1132370D001002010B5074B98470400064B98473E
S1132380002803D080225205044B1A602000044B1D
S1132390984710BD17230000D523000004ED00E08A
S11323A01F2300000A4B9B6A1B68002B09D10133D1
S11323B0002B08D1064B9A6AD268D2685268DA6256
S11323C070470023F4E701225242014BDA62F7E737
S11323D00C010020F8B53C4B9B6D002B67D13A4BA8
S11323E05D6D01355D65002D11D1384B9B6A1B680D
S11323F0002B01D072B6FEE7344A916A324BD86B97
S11324009062D9631A6E01321A66314B98472F4B8A
S1132410DB6A9D423FD200242B4B5B6CDA6A93004B
S11324209B189A00294B9B181B6B012B44D9012440
S113243042E00124254B9B6A1B68002B2DD000230E
S1132440002B2CD1214B9B6ADB68DE6873689D42AC
S11324502AD3371D38001F4B9847B36A002B03D08B
S1132460300018301B4B9847F26A174B1B6D9A4289
S113247001D9154B1A6593009B189A001348303004
S113248080183900144B9847F26A0F4B5B6CDB6A77
S11324909A42CED2CEE70024CCE70133D0E7012222
S11324A052420A4BDA62B7E7084AD362B4E7064AF3
S11324B0536E013353660024034B9B6E002B00D0F4
S11324C001242000F8BDC0468C0100200C0100202E
S11324D0A5230000ED220000D522000010B51D4BFD
S11324E09B6D002B0FD11B4B00229A661B6D9A002B
S11324F0D2189100184A5218126B002A09D1002BE5
S113250005D0013BF3E70122124B9A6610BD72B667
S1132510FEE7114A9900CC18A0001018446B6468B7
S113252044633032C91888000830121894420AD023
S11325309A00D2189100084A5218526BD168054A81
S113254051641365E2E760688900034A52185063D6
S1132550EEE7C0468C0100200C01002010B582B0CB
S1132560032200216846124B98473E236A461370A3
S1132570393B53700F4C01A920000F4B98472000A2
S11325800E4B984780221201082120000C4B9847DB
S11325900222694601980B4B984703220A49019885
S11325A00A4B984764200A4B984702B010BDC046B6
S11325B0712600009C020020FB110000DD110000C8
S11325C0E911000005120000F80100203D1200008E
S11325D09D10000010B50023002802D000F004F87C
S11325E0431C180010BDC046414208401C21012371
S11325F01B04984201D3000C10391B0A984201D3E2
S1132600000A08391B09984201D30009043902A2BF
S1132610105C401A7047C0461B1C1D1D1E1E1E1E4A
S11326201F1F1F1F1F1F1F1F70B500260C4D0D4CB1
S1132630641BA410A64209D1002600F01FF90A4D1C
S11326400A4C641BA410A64205D170BDB300EB581C
S113265098470136EEE7B300EB5898470136F2E7A6
S11326608828000088280000882800008C280000A2
S113267003008218934200D1704719700133F9E7BF
S11326802E2E2F68616C2F7372632F68616C5F61EB
S113269064635F646D612E63000000002E2E2F685A
S11326A0616C2F7372632F68616C5F6932635F6D55
S11326B05F73796E632E63002E2E2F68616C2F7307
S11326C072632F68616C5F696F2E63002E2E2F6812
S11326D0616C2F7372632F68616C5F7370695F6DD7
S11326E05F73796E632E6300000000001000000029
S11326F000000000000000000000000000000000D6
S113270000000000010000001000000000000000B4
S113271000000000000000000000000000000000B5
S11327202E2E2F68706C2F6164632F68706C5F614C
S113273064632E63000000000000000048000000F5
S11327400100000059000000020000005A000000CF
S1132750030000004B0000000600000036000000EB
S113276008000000380000000A0000000A00000011
S11327700B0000000B0000000C0000000C00000027
S11327800D0000000D0000000E0000002E000000EF
S11327902E2E2F68706C2F6569632F68706C5F65CF
S11327A069632E6300000000000400420008004238
S11327B0000C0042001000420014004200180042C5
S11327C0000000430004004300000000000000007B
S11327D000000000000000000000000000000000F5
S11327E014002000000100000E0F00000000D700BC
S11327F000093D0001000000140020000001000059
S11328000E0F00000000D70000093D000400000086
S113281014002000000100000E0F00000000D7008B
S113282000093D0005000000140020000001000024
S11328300E0F00000000D70000093D00000000005A
S11328400000000000000000000000000C00020076
S113285000000200000000002700FF010300000048
S11328602E2E2F68706C2F736572636F6D2F6870D6
S11328706C5F736572636F6D2E630000F8B5C046BC
S1132880F8BC08BC9E467047E5000000F8B5C04699
S10F2890F8BC08BC9E467047BD00000068
S9030000FC
